:1000000096C2BAC2E6C2B8C204C9B6C2B5C2B4C2C8
:10001000B3C2B2C2B1C2B0C2AFC2AEC2ADC2CAFEFA
:10002000BABE000000000000000000000000000058
:1000300000000000000000000000000000000000C0
:1000400000000000000000000000000000000000B0
:1000500000000000000000000000000000000000A0
:100060000000000000000000000000000000000090
:1004100000000000000000000000000000002A2B87
:1004200028000000000000000000000000000000A4
:100430000029000000002C9EB4A0A1A2A434A6A70D
:10044000A5AE362D3738271E1F202122232425262E
:10045000B333B62EB7B89F8485868788898A8B8CFC
:100460008D8E8F909192939495969798999A9B9C44
:100470009D2F3130A3AD350405060708090A0B0C82
:100480000D0E0F101112131415161718191A1B1C24
:100490001DAFB1B0B505010906A101050719E02995
:1004A000E71500250175019508810295017508255C
:1004B00065190029658100C0090222000101008040
:1004C00032090400000103010100092101010001BA
:1004D0002223000705810308000A12011001000011
:1004E0000008C016DB2700010102000110034400D0
:1004F0006900670069004B00650079001C03640017
:100500006900670069007300740075006D00700079
:100510002E0063006F006D0004030904010204084B
:1005200010200101010101010038003748061124A3
:100530001FBECFE5D2E0DEBFCDBF10E0A0E6B0E049
:10054000ECE8F4E102C005900D92A437B107D9F7A9
:1005500020E0A4E7B0E001C01D92AA3BB207E1F79A
:1005600015E0CEE2D5E003C02297FE016FD7CC3272
:10057000D107D1F73BD688C743CDA82FB92F80E04C
:1005800090E041E050EA609530E009C02D9182276B
:100590009795879510F084279527305EC8F36F5F95
:1005A000A8F30895EADF8D939D930895A6E0882728
:1005B0009927AA9569F00197E1F3B399FCCFB39B12
:1005C000FECF81E09927A6B3019611F0A871D9F763
:1005D0000895CF93CFB7CF93C395B39BE9F7B39B60
:1005E0000BC0B39B09C0B39B07C0B39B05C0B39BB3
:1005F00003C0B39B01C0D5C00F92DF93C0919D0093
:10060000DD27CC55DF4F012EB39B03C0DF910F9048
:10061000E6CF2F930F931F934F932FEF4F6F06B398
:1006200003FB20F95F933F9350E03BE065C016B3B6
:100630000126502953FDC89556B3012703FB25F920
:100640002F7306B3B1F05027102713FB26F906B21B
:100650002230F0F000C016B3012703FB27F9012672
:10066000502906B22430E8F54F77206816B3000011
:10067000F6CF50274F7D206206B2102F000000C039
:1006800006B300265029102713FB26F906B2E2CF45
:100690004F7B06B3206400C0DACF012650291871C1
:1006A00006B269F14E7F2160012F16B328C00026E3
:1006B00050294D7F06B22260102F29C001265029F3
:1006C0004B7F06B22460012F2DC016B3012650299E
:1006D000477F2860000006B22EC04F7E06B320611F
:1006E00030C0422706B3499300265029102706B28E
:1006F0004FEF13FB20F9297F16B379F2187159F1E6
:100700000126502906B2012703FB21F9237F06B3F6
:1007100071F2002650293150D0F006B2102713FB99
:1007200022F9277E16B351F201265029012703FB37
:1007300006B223F92F7C49F2000006B3102713FB01
:1007400024F90026502906B22F7939F270CF10E231
:100750001ABF002719C03B503195C31BD04010E28F
:100760001ABF0881033C09F10B34F9F020919B007A
:100770001981110F1213EDCF4A81441F093651F12F
:100780000D3211F0013E29F70093A2003F915F91D5
:100790004F911F910F912F91DF910F90CAB7C5FD17
:1007A0001BCFCF91CFBFCF9118952091A2002223CC
:1007B00069F31091A000112379F534307AF1309368
:1007C000A00020939C0010919D003BE0311B3093D2
:1007D0009D0024C00091A0000130F4F40AE54F70A0
:1007E00049F43091670034FD1AC000936700C4E8F3
:1007F000D0E019C030918F0034FD11C000938F00FC
:10080000C0E9D0E010C0052710E000C021C00527D6
:1008100010E0C89508BB14C03AE501C032ED032EC4
:10082000C0E0D0E032E017B31861C39A08B317BB39
:1008300058E120E84FEF20FF052708BB27951795C3
:100840001C3F28F700004552B0F720FF05272795E9
:1008500008BB17951C3FB8F629913A9561F7077EBA
:100860001091A100110F08BBC250D04011F010939D
:100870009B0010E21ABF086017B3177E402F477E17
:1008800054E05A95F1F708BB17BB48BB7FCF8F9256
:100890009F92AF92BF92CF92DF92EF92FF92CF934F
:1008A000DF9300D000D0CDB7DEB76B017C01F8D468
:1008B0004B015C011C141D041E041F049CF4F0D4A5
:1008C000C61AD70AE80AF90AC80CD91CEA1CFB1C8C
:1008D00069837A838B839C8359D269817A818B81E6
:1008E0009C81E6CF0F900F900F900F90DF91CF91EA
:1008F000FF90EF90DF90CF90BF90AF909F908F9040
:1009000008950F931F93CF93DF9300D0CDB7DEB739
:100910008C0180918F0084FD0CC04A83698336D29C
:1009200080E990E50197F1F700C0000069814A81F4
:10093000F0CFF8014283638362E0C80102960F9012
:100940000F90DF91CF911F910F91FCC1CF93DF9357
:10095000EC01D7DF40E060E0CE01DF91CF91D1CF55
:10096000E62FF0E0EA5EFB4F6491262F30E0220F85
:10097000232F221F330B232B11F040E201C040E054
:100980006F77E4DF81E090E00895FC0186E790E076
:1009900090939F0080939E0080818076803231F416
:1009A00081818A3019F483818093780080E00895F2
:1009B000CF93C82F682F80E0CFD46C2F81E0CF91E8
:1009C000CBC48330A8F490E00296880F991FFC01F5
:1009D000E25EFF4F4491FC01E15EFF4F8491282FBE
:1009E00030E0342B2150310981E02F3F334008F0B3
:1009F00080E008950895AF92BF92CF92DF92EF9278
:100A0000FF920F931F93CF93DF931F92CDB7DEB763
:100A10008C010F5F1F4FFC01E25EFF4F24913FEFFF
:100A2000320F3E3F80F040E060E084E790E00F90BE
:100A3000DF91CF911F910F91FF90EF90DF90CF90BA
:100A4000BF90AF9083CF213089F4F801E25EFF4F71
:100A500024918C010D5F1F4FFC01E05EFF4F6491FC
:100A600070E0722B80E090E012DF40C0223079F419
:100A7000F801E25EFF4F44918C010D5F1F4FFC01B6
:100A8000E05EFF4F649184E790E060DF2FC03DEFB0
:100A9000320F323058F57C0132E0E30EF11CF801E0
:100AA000E25EFF4FE49100E010E0AE2EB12CAC010D
:100AB000405E5F4F6A010A151B0574F4F601E00FF2
:100AC000F11F649140E050E084E790E0298386D3F1
:100AD0000F5F1F4F2981EFCF85010E0D1F1D2430A1
:100AE00029F468E670E084E790E0AED2011554E0A6
:100AF000150708F098CFC8018BCF81E059DF68EC6B
:100B000070E080E090E0C3DE80E052CF81E050CF23
:100B100080E04ECFCF93DF93C5E0D0E081E048DFA7
:100B200062E370E080E090E0B2DE80E041DF62E30B
:100B300070E080E090E0ABDE219781F7DF91CF910C
:100B40000895CF93DF931F92CDB7DEB761E080E0C9
:100B5000CCD361E081E0C9D305E010E061E080E042
:100B6000FBD361E081E0F8D364E670E080E090E0E0
:100B70008EDE60E080E0F0D360E081E0EDD364E6FB
:100B800070E080E090E083DE0150110939F760E009
:100B900080E0E2D360E081E0DFD380E090E05AD4EF
:100BA000C82E42E0481708F4C12C03E010E0F3E03F
:100BB000EF2EF12C8C2D05DFD12C811117C0C60131
:100BC0000196B701F8D3C82E0150110999F781E0B9
:100BD000EFDE64E670E080E090E059DE80E0E8DE81
:100BE00064E670E080E090E052DEF1CFC60101964D
:100BF00063E070E0E0D3682F03E010E073E0E72EDD
:100C0000F12C862F6983DDDE6981811109C0862F71
:100C100090E00196B701CFD3682F0150110989F7F1
:100C200080E090E01FD468EE73E080E090E02FDE7B
:100C300000E010E062DF6CE271E080E090E027DE2F
:100C40000F5F1F4FC016D106ACF760DF68EB7BE08B
:100C500080E090E01CDE5CDFC6010296880F991FE1
:100C6000FC01E25EFF4F2491FC01E15EFF4F8491A5
:100C700090E0922B9C01215031092F3F334008F422
:100C8000BADE48DF68EE73E080E090E000DEFACF85
:100C90008EE690E09093750080937400F894BB9A70
:100CA00027EA86E99CE0215080409040E1F700C0AF
:100CB0000000BB987FD17894109277001092760054
:100CC00062E086E790E03EC0DF92EF92FF920F93E2
:100CD0001F93CF93DF93C8E0D0E0F12C80E8E82E9B
:100CE000DF2CDE0CD1BE62DC8C01043389E01807F6
:100CF0000CF4FD2CE694219799F78FEF8F0D81BFAF
:100D0000CF2DD0E0219681B790E0C817D9078CF09D
:100D10004DDC8453994097FF03C0919581959109CB
:100D20008017910714F4F1B68C0181B78F5F81BFF2
:100D3000EACFF1BEDF91CF911F910F91FF90EF901D
:100D4000DF900895CF93C62F20918F0024FF07C016
:100D50002091900038E823272093900003C02AE5D3
:100D600020938F00DC01E1E9F0E09C2F9E0F8D9134
:100D70008193892F8E1B1816D4F36C2F81E990E094
:100D800011DCCC5FC0938F00CF910895CF93DF9398
:100D90008091A000835087FDA8C090919D00209174
:100DA0009C002D3209F09FC0883009F09CC0CCE037
:100DB000D0E0C91BD109CC55DF4F83EC8093840070
:100DC0008AE58093670010927A008881807619F016
:100DD000CE01DBDD7FC09A8110928D008981811167
:100DE00006C010928E002DE830E082E06FC08530A2
:100DF00019F49093A10067C0863009F04EC08B8132
:100E0000813041F48AED94E090939F0080939E009E
:100E100082E13FC0823041F488EB94E090939F00E0
:100E200080939E0082E235C08330F1F4911108C0B6
:100E300088E195E090939F0080939E0084E029C014
:100E4000913041F48CEF94E090939F0080939E004A
:100E50008CE11FC09230E1F48CEE94E090939F00FF
:100E600080939E0080E115C0813241F48AEC94E0C9
:100E700090939F0080939E0089E00BC0823241F4E2
:100E800085E994E090939F0080939E0083E201C0E7
:100E900080E090E490937A001DC0883069F089303A
:100EA00019F49093A3000FC08A3049F08B3059F4A5
:100EB0008BE48093900007C023EA30E002C02DE865
:100EC00030E081E003C02DE830E080E030939F0007
:100ED00020939E009F81911104C09E81981708F471
:100EE000892F809366001092A0008091670084FF94
:100EF00046C0809166008F3F09F441C0C82F8930F9
:100F000008F0C8E08C1B809366008091840098E80C
:100F1000892780938400CC2331F120919E00309169
:100F20009F0080917A0086FF0BC0A5E8B0E0F90130
:100F30008C2F8A0F94919D9331968A13FBCF09C011
:100F4000D901E5E8F0E08C2F8E0F9D9191938E13DF
:100F5000FCCF8FEF8C0F90E00196820F931F909340
:100F60009F0080939E006C2F85E890E01BDBCC5F98
:100F7000CC3019F08FEF80936600C093670084E156
:100F800096B3987131F48150D9F71092A100109264
:100F90009B00C1E08111C0E0809179008C1739F08D
:100FA000C11103C0F89490DE7894C0937900DF916A
:100FB000CF910895AC9A8BB780628BBF8BE48093FE
:100FC00090008AE580938F0008950F931F93CF932D
:100FD000DF93EC018B01F80161918F01662341F0F1
:100FE000E881F9810190F081E02DCE010995F3CFE0
:100FF000DF91CF911F910F910895EF92FF920F9380
:101000001F93CF93DF937C018A01EB01060F171F1B
:10101000C017D10751F06991D701ED91FC91019072
:10102000F081E02DC7010995F3CFDF91CF911F919A
:101030000F91FF90EF900895DC01ED91FC910190EC
:10104000F081E02D642F0994DC01ED91FC91028088
:10105000F381E02D09944F925F926F927F928F926D
:101060009F92AF92BF92CF92DF92EF92FF920F9337
:101070001F93CF93DF93CDB7DEB7A0970FB6F89449
:10108000DEBF0FBECDBF5C01411551056105710585
:10109000D9F440E350E060E070E0A0960FB6F89419
:1010A000DEBF0FBECDBFDF91CF911F910F91FF909B
:1010B000EF90DF90CF90BF90AF909F908F907F90F8
:1010C0006F905F904F90B8CF8E010F5F1F4FC12C74
:1010D000D12C76014801422E512C612C712C8FEFBE
:1010E000C81AD80AE80AF80ACB01BA01A30192018A
:1010F00075D1CA01F80161938F01A901BC014115A5
:1011000051056105710559F7F1E0CF1AD108E108E1
:10111000F108F401EC0DFD1D80818A3010F440E3EC
:1011200001C047E3480F552747FD5095652F752FA0
:10113000C50182DF81E0C81AD108E108F108EFEFAC
:10114000CE16DE06EE06FE0621F7A0960FB6F89440
:10115000DEBF0FBECDBFDF91CF911F910F91FF90EA
:10116000EF90DF90CF90BF90AF909F908F907F9047
:101170006F905F904F900895CF92DF92EF92FF9221
:10118000CF93DF93EC016A017B012115310539F41E
:10119000DF91CF91FF90EF90DF90CF904DCF2A302D
:1011A000310591F477FF0FC020E030E04DE250E0D0
:1011B00060E070E0E1DFF094E094D094C094C11C52
:1011C000D11CE11CF11C2AE0B701A601CE01DF9180
:1011D000CF91FF90EF90DF90CF903DCF9A01462FB7
:1011E000552747FD5095652F752FC6CF65D0A9DCD3
:1011F00001DCFECF83B7887F83BF8AB58C7F816097
:101200008ABD83B7877F83BF83B7887F836083BFAF
:10121000089578941F920F920FB60F9211242F9376
:101220003F938F939F93AF93BF9380917C00909156
:101230007D00A0917E00B0917F0030917B002CE773
:10124000230F2D3728F02FEF230F0196A11DB11D7D
:1012500020937B0080937C0090937D00A0937E0080
:10126000B0937F008091800090918100A0918200D6
:10127000B09183000196A11DB11D809380009093D1
:101280008100A0938200B0938300BF91AF919F91A2
:101290008F913F912F910F900FBE0F901F90189537
:1012A0002FB7F89460917C0070917D0080917E0052
:1012B00090917F002FBF0895789480B7806880BF99
:1012C00080B7806480BF8CB580648CBD8FEF8DBD8E
:1012D00080B7807F876080BF89B7846089BF8ADFDD
:1012E00086B1876086B9379A0895CF93DF9390E0EF
:1012F000FC01E45EFA4F2491FC01EE5DFA4F84910B
:10130000882339F190E0FC01E65DFA4FA491B0E04A
:10131000FC01E85DFA4F8491611106C09FB7F89413
:101320008C912095822313C0623069F4C82FD0E0DD
:101330009FB7F8948C91322F309583238C938881BA
:10134000822B888305C09FB7F8948C91822B8C9355
:101350009FBFDF91CF910895A82FB0E0FD01E45E1B
:10136000FA4F9491FD01EE5DFA4FE491EE2311F1F5
:10137000811103C08AB58F7304C0813021F48AB50E
:101380008F7C8ABD05C0843019F48CB58F7C8CBDF0
:10139000F0E0E85DFA4FA491B0E02FB7611105C00D
:1013A000F8948C919095892303C0F8948C91892BA3
:1013B0008C932FBF089597FB072E16F4009406D048
:1013C00077FD08D02DD007FC05D03EF4909581958F
:1013D0009F4F0895709561957F4F0895A1E21A2E51
:1013E000AA1BBB1BFD010DC0AA1FBB1FEE1FFF1FC9
:1013F000A217B307E407F50720F0A21BB30BE40B19
:10140000F50B661F771F881F991F1A9469F760955F
:101410007095809590959B01AC01BD01CF01089519
:10142000AA1BBB1B51E107C0AA1FBB1FA617B7070A
:1014300010F0A61BB70B881F991F5A95A9F7809526
:101440009095BC01CD010895EE0FFF1F0590F4911A
:10145000E02D0994E199FECF9FBB8EBBE09A9927BE
:101460008DB30895262FE199FECF9FBB8EBBE09AE6
:1014700001970DB2021639F01CBA2DBB0FB6F894C5
:0C148000E29AE19A0FBE0895F894FFCFA5
:10148C000000BA008000FF5A0A0000000000B004FF
:04149C00E507FD075C
:00000001FF
